{
  "contractName": "CertificateRegistry",
  "abi": [
    {
      "anonymous": false,
      "inputs": [
        {
          "indexed": false,
          "internalType": "string",
          "name": "certHash",
          "type": "string"
        }
      ],
      "name": "CertificateIssued",
      "type": "event"
    },
    {
      "inputs": [
        {
          "internalType": "string",
          "name": "_certHash",
          "type": "string"
        },
        {
          "internalType": "string[]",
          "name": "_keys",
          "type": "string[]"
        },
        {
          "internalType": "string[]",
          "name": "_values",
          "type": "string[]"
        }
      ],
      "name": "addCertificate",
      "outputs": [],
      "stateMutability": "nonpayable",
      "type": "function"
    },
    {
      "inputs": [
        {
          "internalType": "string",
          "name": "_certHash",
          "type": "string"
        }
      ],
      "name": "verifyCertificate",
      "outputs": [
        {
          "internalType": "string[]",
          "name": "keys",
          "type": "string[]"
        },
        {
          "internalType": "string[]",
          "name": "values",
          "type": "string[]"
        }
      ],
      "stateMutability": "view",
      "type": "function"
    }
  ],
  "bytecode": "0x608060405234801561001057600080fd5b50610c20806100206000396000f3fe608060405234801561001057600080fd5b50600436106100365760003560e01c80632e77737a1461003b5780638b23d87514610057575b600080fd5b610055600480360381019061005091906106af565b610088565b005b610071600480360381019061006c9190610666565b6101de565b60405161007f9291906108df565b60405180910390f35b6000808460405161009991906108c8565b908152602001604051809103902060000180549050146100ee576040517f08c379a00000000000000000000000000000000000000000000000000000000081526004016100e590610958565b60405180910390fd5b8051825114610132576040517f08c379a000000000000000000000000000000000000000000000000000000000815260040161012990610938565b60405180910390fd5b60405180604001604052808381526020018281525060008460405161015791906108c8565b908152602001604051809103902060008201518160000190805190602001906101819291906103d3565b50602082015181600101908051906020019061019e9291906103d3565b509050507f61d797131bb49468de135d0d68fea15a511ca6dadd1d5cbea33e01725bb568e4836040516101d19190610916565b60405180910390a1505050565b606080600080846040516101f291906108c8565b908152602001604051809103902060405180604001604052908160008201805480602002602001604051908101604052809291908181526020016000905b828210156102dc57838290600052602060002001805461024f90610aad565b80601f016020809104026020016040519081016040528092919081815260200182805461027b90610aad565b80156102c85780601f1061029d576101008083540402835291602001916102c8565b820191906000526020600020905b8154815290600101906020018083116102ab57829003601f168201915b505050505081526020019060010190610230565b50505050815260200160018201805480602002602001604051908101604052809291908181526020016000905b828210156103b557838290600052602060002001805461032890610aad565b80601f016020809104026020016040519081016040528092919081815260200182805461035490610aad565b80156103a15780601f10610376576101008083540402835291602001916103a1565b820191906000526020600020905b81548152906001019060200180831161038457829003601f168201915b505050505081526020019060010190610309565b50505050815250509050806000015181602001519250925050915091565b828054828255906000526020600020908101928215610422579160200282015b82811115610421578251829080519060200190610411929190610433565b50916020019190600101906103f3565b5b50905061042f91906104b9565b5090565b82805461043f90610aad565b90600052602060002090601f01602090048101928261046157600085556104a8565b82601f1061047a57805160ff19168380011785556104a8565b828001600101855582156104a8579182015b828111156104a757825182559160200191906001019061048c565b5b5090506104b591906104dd565b5090565b5b808211156104d957600081816104d091906104fa565b506001016104ba565b5090565b5b808211156104f65760008160009055506001016104de565b5090565b50805461050690610aad565b6000825580601f106105185750610537565b601f01602090049060005260206000209081019061053691906104dd565b5b50565b600061054d6105488461099d565b610978565b905080838252602082019050828560208602820111156105705761056f610b73565b5b60005b858110156105be57813567ffffffffffffffff81111561059657610595610b6e565b5b8086016105a38982610638565b85526020850194506020840193505050600181019050610573565b5050509392505050565b60006105db6105d6846109c9565b610978565b9050828152602081018484840111156105f7576105f6610b78565b5b610602848285610a6b565b509392505050565b600082601f83011261061f5761061e610b6e565b5b813561062f84826020860161053a565b91505092915050565b600082601f83011261064d5761064c610b6e565b5b813561065d8482602086016105c8565b91505092915050565b60006020828403121561067c5761067b610b82565b5b600082013567ffffffffffffffff81111561069a57610699610b7d565b5b6106a684828501610638565b91505092915050565b6000806000606084860312156106c8576106c7610b82565b5b600084013567ffffffffffffffff8111156106e6576106e5610b7d565b5b6106f286828701610638565b935050602084013567ffffffffffffffff81111561071357610712610b7d565b5b61071f8682870161060a565b925050604084013567ffffffffffffffff8111156107405761073f610b7d565b5b61074c8682870161060a565b9150509250925092565b600061076283836107df565b905092915050565b600061077582610a0a565b61077f8185610a2d565b935083602082028501610791856109fa565b8060005b858110156107cd57848403895281516107ae8582610756565b94506107b983610a20565b925060208a01995050600181019050610795565b50829750879550505050505092915050565b60006107ea82610a15565b6107f48185610a3e565b9350610804818560208601610a7a565b61080d81610b87565b840191505092915050565b600061082382610a15565b61082d8185610a4f565b935061083d818560208601610a7a565b61084681610b87565b840191505092915050565b600061085c82610a15565b6108668185610a60565b9350610876818560208601610a7a565b80840191505092915050565b600061088f601c83610a4f565b915061089a82610b98565b602082019050919050565b60006108b2601a83610a4f565b91506108bd82610bc1565b602082019050919050565b60006108d48284610851565b915081905092915050565b600060408201905081810360008301526108f9818561076a565b9050818103602083015261090d818461076a565b90509392505050565b600060208201905081810360008301526109308184610818565b905092915050565b6000602082019050818103600083015261095181610882565b9050919050565b60006020820190508181036000830152610971816108a5565b9050919050565b6000610982610993565b905061098e8282610adf565b919050565b6000604051905090565b600067ffffffffffffffff8211156109b8576109b7610b3f565b5b602082029050602081019050919050565b600067ffffffffffffffff8211156109e4576109e3610b3f565b5b6109ed82610b87565b9050602081019050919050565b6000819050602082019050919050565b600081519050919050565b600081519050919050565b6000602082019050919050565b600082825260208201905092915050565b600082825260208201905092915050565b600082825260208201905092915050565b600081905092915050565b82818337600083830152505050565b60005b83811015610a98578082015181840152602081019050610a7d565b83811115610aa7576000848401525b50505050565b60006002820490506001821680610ac557607f821691505b60208210811415610ad957610ad8610b10565b5b50919050565b610ae882610b87565b810181811067ffffffffffffffff82111715610b0757610b06610b3f565b5b80604052505050565b7f4e487b7100000000000000000000000000000000000000000000000000000000600052602260045260246000fd5b7f4e487b7100000000000000000000000000000000000000000000000000000000600052604160045260246000fd5b600080fd5b600080fd5b600080fd5b600080fd5b600080fd5b6000601f19601f8301169050919050565b7f4d69736d617463686564206b65792d76616c7565206c656e6774687300000000600082015250565b7f436572746966696361746520616c72656164792065786973747300000000000060008201525056fea26469706673582212207cd96e3628d05fe3c6fe102af5d96744b7e23e1a9f6d82872ece1ecec8dfc42064736f6c63430008070033",
  "immutableReferences": {},
  "source": "// SPDX-License-Identifier: MIT\r\npragma solidity ^0.8.0;\r\n\r\ncontract CertificateRegistry {\r\n\r\n    struct Certificate {\r\n        string[] keys;\r\n        string[] values;\r\n    }\r\n\r\n    mapping(string => Certificate) private certificates;\r\n\r\n    event CertificateIssued(string certHash);\r\n\r\n    // Add a certificate with dynamic key-value attributes\r\n    function addCertificate(\r\n        string memory _certHash,\r\n        string[] memory _keys,\r\n        string[] memory _values\r\n    ) public {\r\n        require(certificates[_certHash].keys.length == 0, \"Certificate already exists\");\r\n        require(_keys.length == _values.length, \"Mismatched key-value lengths\");\r\n\r\n        certificates[_certHash] = Certificate({\r\n            keys: _keys,\r\n            values: _values\r\n        });\r\n\r\n        emit CertificateIssued(_certHash);\r\n    }\r\n\r\n    // Retrieve the key-value pairs for a certificate\r\n    function verifyCertificate(string memory _certHash) public view returns (\r\n        string[] memory keys,\r\n        string[] memory values\r\n    ) {\r\n        Certificate memory cert = certificates[_certHash];\r\n        return (\r\n            cert.keys,\r\n            cert.values\r\n        );\r\n    }\r\n}\r\n",
  "sourcePath": "C:\\Users\\akash\\OneDrive\\Desktop\\KLETU\\blockchain\\truffle\\contracts\\certificte.sol",
  "compiler": {
    "name": "solc",
    "version": "0.8.7+commit.e28d00a7.Emscripten.clang"
  },
  "schemaVersion": "3.4.16",
  "updatedAt": "2025-05-12T15:18:47.528Z",
  "devdoc": {
    "kind": "dev",
    "methods": {},
    "version": 1
  },
  "userdoc": {
    "kind": "user",
    "methods": {},
    "version": 1
  }
}